S01700004763634170706C69636174696F6E312E737265635B
S11300000C942A000C94A6040C94CF040C94F804C9
S11300100C9447000C9447000C9447000C94470040
S11300200C9447000C9447000C9447000C94470030
S11300300C9447000C9421050C9473050C944A0508
S11300400C9447000C9447000C9447000C94470010
S11300500C94470011241FBECFE5D8E0DEBFCDBF0E
S113006013E0A0E6B0E0ECE3FBE002C005900D92E3
S1130070A039B107D9F723E0A0E9B3E001C01D928C
S1130080AF39B207E1F70E94AF020C949C050C94BF
S113009000000F931F93CF938C01C0E015C08C2FE9
S11300A090E0FC013296EE0FFF1FE00FF11F20815C
S11300B0211109C0880F991FF801E80FF91F60E0AA
S11300C083810E94E103CF5FF8018281C81738F36E
S11300D0CF911F910F910895DF92EF92FF920F93AA
S11300E01F93CF93DF937C01D12C1EC00D2D10E004
S11300F0E8012296CC0FDD1FCE0DDF1DF801EE0FB7
S1130100FF1FEE0DFF1D688183810E94F602888126
S1130110811109C0000F111FF701E00FF11F60E00A
S113012083810E94E103D394F7018281D816F0F20F
S1130130DF91CF911F910F91FF90EF90DF90089581
S11301406F927F929F92BF92CF92DF92EF92FF9233
S11301500F931F93CF93DF93912CDDC084E5989E7A
S113016080011124C8018A569F4F3C010E946C00F3
S11301708FEF9BE60197F1F700C0000011E0B12C6E
S1130180ABC08F2D90E02AE22C9FF0012D9FF00D43
S11301901124E80FF91F3296EE0FFF1FEA56FF4FA6
S11301A0208121112BC025E12C9FF0012D9FF00D02
S11301B01124EB0DF11DEE0FFF1FEE0FFF1FEA568A
S11301C0FF4F43A554A565A576A50F2C04C07695CD
S11301D06795579547950A94D2F7642F61702AE280
S11301E02C9FF0012D9FF00D1124E80FF91FEE0F45
S11301F0FF1FEA56FF4F83810E94E103F39401C07D
S1130200F12C84E58C9FF0018D9FF00D1124EA56AA
S1130210FF4FC280FC1408F4B4CF8FEF9BE6019724
S1130220F1F700C00000D12C51C0ED2CF12C8AE272
S11302308C9FF0018D9FF00D1124EE0DFF1D329661
S1130240EE0FFF1FEA56FF4F80818130F1F538C071
S11302500F5F8AE28C9FF0018D9FF00D1124EE0D4B
S1130260FF1DEE0FFF1FEA56FF4F83810E946E04AD
S113027095E19C9FF0019D9FF00D1124EB0DF11D64
S1130280EE0FFF1FEE0FFF1FEA56FF4F43A554A5C5
S113029065A576A50E2C04C0769567955795479568
S11302A00A94D2F7417055276627772790E0A0E09B
S11302B0B0E010E0481759076A077B0711F404C03F
S11302C000E0043028F201C011E0D394DC1408F4F7
S11302D0ACCF112379F0B394C92DD0E084E58C9F81
S11302E0F0018D9FF00D1124E751FF4F8081B81666
S11302F008F486CFC3010E944900112359F084E514
S11303008C9FF0018D9FF00D1124EA56FF4F8081E0
S1130310918107C0939497E0991508F01FCF80E668
S113032090E0DF91CF911F910F91FF90EF90DF90BC
S1130330CF90BF909F907F906F900895CF93C82FD8
S113034060E08DE10E94E1036C2F661F6627661F43
S11303508BE10E94E103C6FB662760F98AE10E94F3
S1130360E103C5FB662760F989E10E94E103C4FB50
S1130370662760F988E10E94E10361E08CE10E9454
S1130380E1038CEC9AE00197F1F700C0000060E013
S11303908CE10E94E1038CEC9AE00197F1F700C034
S11303A00000C3FB662760F98BE10E94E103C2FBF6
S11303B0662760F98AE10E94E103C1FB662760F9C0
S11303C089E10E94E1036C2F617088E10E94E103DE
S11303D061E08CE10E94E1038CEC9AE00197F1F773
S11303E000C0000060E08CE10E94E1038CEC9AE024
S11303F00197F1F700C00000CF910895CF93C82F63
S113040061E08DE10E94E1036C2F661F6627661F81
S11304108BE10E94E103C6FB662760F98AE10E9432
S1130420E103C5FB662760F989E10E94E103C4FB8F
S1130430662760F988E10E94E10361E08CE10E9493
S1130440E1038CEC9AE00197F1F700C0000060E052
S11304508CE10E94E1038CEC9AE00197F1F700C073
S11304600000C3FB662760F98BE10E94E103C2FB35
S1130470662760F98AE10E94E103C1FB662760F9FF
S113048089E10E94E1036C2F617088E10E94E1031D
S113049061E08CE10E94E1038CEC9AE00197F1F7B2
S11304A000C0000060E08CE10E94E1038CEC9AE063
S11304B00197F1F700C00000CF9108952FEF8FEA64
S11304C091E0215080409040E1F700C0000082E0BC
S11304D00E949E0188E20E949E018CE00E949E017F
S11304E081E00E949E018CEC9AE00197F1F700C034
S11304F0000086E00E949E01089581E00E949E0112
S11305008CEC9AE00197F1F700C0000008950F9376
S11305101F93CF938C01C0E003C00E94FE01CF5F04
S1130520F801EC0FF11D80818111F7CFCF911F915C
S11305300F910895CF93DF93C82FD62F813029F4DC
S11305408FEF860F80680E949E01C23029F48FEFDE
S11305508D0F806C0E949E01DF91CF9108950E94BF
S1130560D1030E945E0286E393E00E9487022FEF8C
S11305708FE992E3215080409040E1F700C00000F1
S11305800E947D0287E493E00E94870261E082E09A
S11305900E949A0286E593E00E9487028EE10E94FF
S11305A06E04811108C081E080939E038EE10E9455
S11305B06E048823D9F380919E03882379F368E03D
S11305C082E00E949A0283E693E00E94870268E038
S11305D082E00E949A020E94A00090939D0380935F
S11305E09C030E94870210929E03D8CF982F969561
S11305F09695969587709130D9F138F0923009F438
S11306006AC0933009F49AC00895613089F018F0F3
S11306106230E1F008954AB321E030E0B90102C04C
S1130620660F771F8A95E2F7CB01842B8ABB089566
S11306304AB321E030E0B90102C0660F771F8A9502
S1130640E2F7CB01809584238ABB08954AB321E065
S113065030E0B90102C0660F771F8A95E2F7CB013B
S1130660962F909594239ABB9BB3892B8BBB0895AB
S1130670613089F018F06230E1F0089547B321E069
S113068030E0B90102C0660F771F8A95E2F7CB010B
S1130690842B87BB089547B321E030E0B90102C041
S11306A0660F771F8A95E2F7CB018095842387BB79
S11306B0089547B321E030E0B90102C0660F771F07
S11306C08A95E2F7CB01962F9095942397BB98B324
S11306D0892B88BB0895613089F018F06230E1F00D
S11306E0089544B321E030E0B90102C0660F771FDA
S11306F08A95E2F7CB01842B84BB089544B321E0AF
S113070030E0B90102C0660F771F8A95E2F7CB018A
S11307108095842384BB089544B321E030E0B9017B
S113072002C0660F771F8A95E2F7CB01962F90954A
S1130730942394BB95B3892B85BB0895613089F0CC
S113074018F06230E1F0089541B321E030E0B901DE
S113075002C0660F771F8A95E2F7CB01842B81BB19
S1130760089541B321E030E0B90102C0660F771F5C
S11307708A95E2F7CB018095842381BB089541B328
S113078021E030E0B90102C0660F771F8A95E2F7D5
S1130790CB01962F9095942391BB92B3892B82BB66
S11307A00895CF93C0E009C0EC2FF0E0E159FC4F6D
S11307B060818C2F0E94F602CF5FC032A8F3CF91E4
S11307C00895982F9695969596958770913041F156
S11307D038F0923009F444C0933009F460C00895AD
S11307E0662381F0613009F078C04BB321E030E03A
S11307F0B90102C0660F771F8A95E2F7CB01842BFB
S11308008BBB08954BB321E030E0B90102C0660F01
S1130810771F8A95E2F7CB01809584238BBB0895DB
S1130820662381F0613009F058C048B321E030E01C
S1130830B90102C0660F771F8A95E2F7CB01842BBA
S113084088BB089548B321E030E0B90102C0660FC7
S1130850771F8A95E2F7CB018095842388BB08959E
S1130860662379F06130C9F545B321E030E0B90180
S113087002C0660F771F8A95E2F7CB01842B85BBF4
S1130880089545B321E030E0B90102C0660F771F37
S11308908A95E2F7CB018095842385BB089566236E
S11308A079F06130D1F442B321E030E0B90102C003
S11308B0660F771F8A95E2F7CB01842B82BB0895DC
S11308C042B321E030E0B90102C0660F771F8A9578
S11308D0E2F7CB018095842382BB0895982F9695E7
S11308E096959695482F4770913081F028F0923074
S11308F0B9F09330F9F028C099B3892F90E002C081
S1130900959587954A95E2F78170089526B330E06E
S1130910C90102C0959587954A95E2F781700895BB
S113092023B330E0C90102C0959587954A95E2F753
S11309308170089520B330E0C90102C09595879570
S11309404A95E2F78170089580E008951F920F920E
S11309500FB60F9211242F933F934F935F936F938E
S11309607F938F939F93AF93BF93EF93FF93E09104
S11309709403F0919503309709F00995FF91EF9155
S1130980BF91AF919F918F917F916F915F914F91A3
S11309903F912F910F900FBE0F901F9018951F92AB
S11309A00F920FB60F9211242F933F934F935F939F
S11309B06F937F938F939F93AF93BF93EF93FF9323
S11309C0E0919203F0919303309709F00995FF9118
S11309D0EF91BF91AF919F918F917F916F915F91B3
S11309E04F913F912F910F900FBE0F901F9018952C
S11309F01F920F920FB60F9211242F933F934F9390
S1130A005F936F937F938F939F93AF93BF93EF9372
S1130A10FF93E0919003F0919103309709F00995C9
S1130A20FF91EF91BF91AF919F918F917F916F91C2
S1130A305F914F913F912F910F900FBE0F901F9098
S1130A4018951F920F920FB60F9211242F933F9374
S1130A504F935F936F937F938F939F93AF93BF93C2
S1130A60EF93FF93E0919A03F0919B03309709F081
S1130A700995FF91EF91BF91AF919F918F917F91D4
S1130A806F915F914F913F912F910F900FBE0F90F7
S1130A901F9018951F920F920FB60F9211242F9347
S1130AA03F934F935F936F937F938F939F93AF93F2
S1130AB0BF93EF93FF93E0919803F09199033097DC
S1130AC009F00995FF91EF91BF91AF919F918F919B
S1130AD07F916F915F914F913F912F910F900FBE36
S1130AE00F901F9018951F920F920FB60F9211241A
S1130AF02F933F934F935F936F937F938F939F9322
S1130B00AF93BF93EF93FF93E0919603F091970314
S1130B10309709F00995FF91EF91BF91AF919F91A3
S1130B208F917F916F915F914F913F912F910F9092
S10F0B300FBE0F901F901895F894FFCF93
S1130B3C556E6B6E6F776E00343038310037343845
S1130B4C36003734353431003734343531310037ED
S1130B5C34333637003430343300373432383000E1
S1130B6C37343139360068000500000100020106F3
S1130B7C0010000000000000000000000000000055
S1130B8C0000000000000000000000000000000055
S1130B9C00100000001200000011000000170000FB
S1130BAC0000000000000000000000000000000035
S1130BBC000000000000000000046D0005000001AE
S1130BCC00020106001000000000000000000000FC
S1130BDC0000000000000000000000000000000005
S1130BEC00000000001000000015000000160000BA
S1130BFC00130000000000000000000000000000D2
S1130C0C000000000000000000000000000472005E
S1130C1C0600000600090017011100100000000076
S1130C2C00000000000000000000000000000000B4
S1130C3C000000000000000000200000002A00005A
S1130C4C0000000000000000000000000000000094
S1130C5C0000000000000000000000000000000084
S1130C6C00027800100000010002000300040005DB
S1130C7C00060007001701160115011401130112D7
S1130C8C011101100000000000000000000CDF0046
S1130C9C004C8C00000DBB00004DBE00000EEC009F
S1130CAC004EF600000FE700004F9C00002CFF00E4
S1130CBC006CFC00000A7F000500000700170116F9
S1130CCC0010000000000000000000000000000004
S1130CDC0000000000000000000000000000000004
S1130CEC00100000001C00000000000000000000C8
S1130CFC00000000000000000000000000000000E4
S1130D0C0000000000000000000285000601010242
S1130D1C00030004000700100000000000000000A5
S1130D2C00000000000000000000000000000000B3
S1130D3C00000000002D000000290000002A000023
S1130D4C002F000000000000000000000000000064
S1130D5C00000000000000000000000000048A00F5
S1130D6C0E00000100020003000401050106001638
S1130D7C00150014001300120011001000000000F4
S1130D8C00000000000000000010200000A0200063
S1130D9C0020210000000000000000000000000002
S1130DAC0000000000000000000000000000000033
S1130DBC000390000600000300040106001100105B
S1130DCC0000000000000000000000000000000013
S1130DDC00000000000000000000000000300000D3
S1130DEC0036000000370000002100000000000065
S1130DFC00000000000000000000000000000000E3
S1130E0C00000000000349432D546573746572207F
S1130E1C5265616479210020507265737320746F7C
S1130E2C205465737400202049432020205F5F5FA9
S1130E3C5F5F002020202020202020202020000084
S1130E4C000000010100000000010000000000008F
S1130E5C0000000000000000000000000002000080
S9030000FC
